:020000040800F2
:10000000881B0020810F0008510D0008530D0008C7
:10001000570D00085B0D00085F0D00080000000090
:10002000000000000000000000000000630D000858
:10003000650D000800000000670D0008690D00084C
:10004000970F0008970F0008970F0008970F0008F8
:10005000970F0008970F0008970F0008970F0008E8
:10006000970F0008970F0008970F0008970F0008D8
:10007000970F0008970F0008970F0008970F0008C8
:10008000970F0008970F0008970F0008970F0008B8
:10009000A30C0008970F0008970F0008970F00089F
:1000A000970F0008970F0008970F0008970F000898
:1000B000970F0008970F0008970F0008970F000888
:1000C000970F0008970F0008970F0008970F000878
:1000D000970F0008DD0D0008970F0008970F000824
:1000E000970F0008970F0008970F00080000000006
:1000F0000000000000000000000000000000000000
:100100000000000000000000970F0008970F000893
:10011000970F0008970F0008970F0008970F000827
:10012000970F0008970F0008970F0008970F000817
:10013000970F0008970F0008970F0008970F000807
:10014000970F0008970F0008970F0008970F0008F7
:1001500000F002F800F05EF80AA090E8000C82447B
:100160008344AAF10107DA4501D100F053F8AFF258
:10017000090EBAE80F0013F0010F18BFFB1A43F085
:1001800001031847A8230000C823000010F8013B12
:100190000A4413F0030408BF10F8014B1D1108BFF7
:1001A00010F8015B641E05D010F8016B641E01F8A5
:1001B000016BF9D1002D15D010F8014B03F00C03A1
:1001C0000C2BA1EB04040ABF10F8013BA4EB831431
:1001D000A4EB032405F1010314F8016B5B1E01F885
:1001E000016BF9D5914238BF10F8013BD1D370476C
:1001F0000023002400250026103A28BF78C1FBD830
:10020000520728BF30C148BF0B6070471FB51FBDE4
:1002100010B510BD02F019F91146FFF7F7FF00F015
:10022000DCFC02F037F903B4FFF7F2FF03BC02F085
:100230003BF90000800400BF0100A0F10100FBD1E8
:10024000704710B504464020FE494861E0B202F014
:1002500033F900BF00204FF40051FB4A1160490000
:1002600011604900121D11604FF04431F74A1160CE
:10027000121F1160F549091D096888B2F349091D6B
:10028000096888B24FF03331121D1160121F1160DE
:100290004FF40041EC4A116000BF04464020E94998
:1002A0000861204610BD10B5E948806940F07D0026
:1002B000E74988614FF03330E449091F0860091DA0
:1002C0000860E048006820F07060DE490860084679
:1002D000006840F040700860DB480C380068C0F3EC
:1002E0001300D9490C39086008460068D949084309
:1002F000D5490C3908604020D24908614FF460406C
:10030000D14908600520FFF795FF0020FFF799FF0E
:10031000D149088008460088A0F5134120397CD1D6
:100320004FF40041E52002F0EFF80121002002F037
:10033000EBF84FF48071012002F0E6F84FF4E06131
:10034000022002F0E1F841F23001032002F0DCF873
:100350000021042002F0D8F840F20221082002F027
:10036000D3F80021092002F0CFF800210A2002F082
:10037000CBF800210C2002F0C7F800210D2002F07C
:10038000C3F800210F2002F0BFF80021102002F076
:10039000BBF80021112002F0B7F80021122002F072
:1003A000B3F80021132002F0AFF81420FFF742FF4A
:1003B00041F2B071102002F0A7F840F2371111207D
:1003C00002F0A2F80520FFF735FF40F239111220A4
:1003D00002F09AF80520FFF72DFF4FF4E8511320A3
:1003E00002F092F81321292002F08EF80520FFF781
:1003F00021FF0021202002F087F80021212002F0B7
:1004000083F80621302002F07FF840F201113120FC
:1004100002F07AF80321322000E07DE002F074F867
:100420004FF48371352002F06FF840F60231362028
:1004300002F06AF840F20231372002F065F840F22B
:100440000771382002F060F80721392002F05CF8CB
:100450004FF4C0613C2002F057F840F20B213D20E0
:1004600002F052F80021502002F04EF8EF21512006
:1004700002F04AF80021522002F046F840F23F1103
:10048000532002F041F84FF41C51602002F03CF878
:100490000121612002F038F800216A2002F034F8CE
:1004A0000021802002F030F80021812002F02CF899
:1004B0000021822002F028F80021832002F024F895
:1004C0000021842002F020F80021852002F01CF891
:1004D0001021902002F018F80021922002F014F868
:1004E0000321932002F010F84FF48871952002F058
:1004F0000BF80021972002F007F80021982002F065
:1005000003F841F23801032001F0FEFF40F27311BD
:10051000072001F0F9FFCFE04F480088A0F5EE4139
:100520008339F8D10121FF2001F0EEFF0821F320EB
:1005300001F0EAFF4FF48071012001F0E5FF4FF474
:10054000E061022001F0E0FF41F23001032001F000
:10055000DBFF40F20231082001F0D6FF40F2072114
:10056000082001F0D1FF0021092001F0CDFF00217A
:100570000A2001F0C9FF0021102001F0C5FF05216C
:10058000112001F0C1FF0021122001F0BDFF002168
:10059000132001F0B9FF0520FFF74CFE41F2B02116
:1005A000102001F0B1FF0520FFF744FE07211120C4
:1005B00001F0AAFF0520FFF73DFE8B21122001F07C
:1005C000A3FF0520FFF736FE4FF4B851132001F0CA
:1005D0009BFF0520FFF72EFE2221292001F094FF2A
:1005E0000021302001F090FF40F20771312001F02E
:1005F0008BFF40F20551322001F086FF40F20711D7
:10060000352001F081FF0821362001F07DFF002117
:10061000372001F079FF40F20221382001F074FF09
:100620004FF48371392001F06FFF40F202213C202A
:1006300001F06AFF4FF481613D2001F065FF052064
:100640000CE00000001001401014014004180140AB
:10065000001002400000303304150020FFF7EAFDCF
:100660000021502001F050FFEF21512001F04CFFFC
:100670000021522001F048FF40F23F11532001F0C9
:1006800043FF4FF42741602001F03EFF012161202C
:1006900001F03AFF3321902001F036FF0B212B208F
:1006A00001F032FF41F23801032001F02DFF40F24A
:1006B0003311072001F028FF10BD70B504460D4628
:1006C000A1B2202001F020FFA9B2212001F01CFFDF
:1006D00098480188222001F017FF70BD95490880D5
:1006E000704795490880704770B505460021202065
:1006F00001F00AFF0021212001F006FF40208F4970
:100700004861222001F0D8FE002403E0284601F0D1
:10071000E7FE641CB4F5963FF8D340208749086192
:1007200070BD2DE9F04704460D469146002600278E
:10073000B046A0461FFA88F1202001F0E5FEA9B2DC
:10074000212001F0E1FE00BF28E040207B49486104
:10075000222001F0B1FE0F270FE039F81600012129
:10076000B940084204D17448008801F0B9FE03E0A2
:100770007048008801F0B4FE7F1E002FEDDA4020A3
:100780006E49086108F101081FFA88F1202001F084
:10079000BBFEA9B2212001F0B7FE761C182ED4D3DF
:1007A000BDE8F08770B505460E461446A4F120005A
:1007B000C4B204EB4400624901EB00123146284602
:1007C000FFF7AFFF70BD2DE9F04107460C4600254D
:1007D0004FF4987607E0227831463846FFF7E2FF7B
:1007E000103E641C6D1C207808B1012000E0002040
:1007F000142D01D2012100E000210842EBD1BDE817
:10080000F08110B504464FA12046FFF7DCFF10BD74
:100810002DE9F05F04460D4616461F46DDF828A078
:1008200006FB07FBD146A9B2502001F06DFEE81986
:10083000401E81B2512001F067FEA1B2522001F0AA
:1008400063FEA019401E81B2532001F05DFEA9B2E3
:10085000202001F059FEA1B2212001F055FE4020D8
:1008600036494861222001F027FE4FF0000805E0DC
:1008700039F8020B01F034FE08F10108D845F7D32E
:1008800040202E490861BDE8F09F70B5002120206E
:1008900001F03AFE0021212001F036FE40202749D8
:1008A0004861222001F008FE00243BE0002535E0ED
:1008B000B4F58C7F03DB002001F012FE2CE0EF2C5E
:1008C00003DD1F2001F00CFE26E0C72C04DD4FF4F1
:1008D000FC6001F005FE1FE09F2C04DD40F2FF707C
:1008E00001F0FEFD18E0772C04DD4FF4784001F0B4
:1008F000F7FD11E04F2C04DD4FF61F0001F0F0FD75
:100900000AE0272C04DD4FF6E07001F0E9FD03E07A
:100910004FF6FF7001F0E4FD681C85B2F02DC7DBD7
:10092000601C84B2B4F5A07FC0DB4020034908619D
:1009300070BD0000001500200215002000100140CD
:100940000000002020202020202020202020202007
:1009500020202020202020200000000008B59C201E
:10096000ADF8000010208DF8030003208DF8020080
:100970006946E84800F0D6FF0F20ADF800001020CF
:100980008DF8030003208DF802006946E24800F06C
:10099000C9FF0120ADF8000048208DF8030069462A
:1009A000DC4800F0BFFF0220ADF8000018208DF8F1
:1009B00003006946D74800F0B5FF01214FF4EB1062
:1009C00001F07FF808BD08B54FF4E06000F0F4FADC
:1009D00000214FF0006000F027FB14208DF800008C
:1009E00000208DF801008DF8020001208DF8030031
:1009F000684600F0E6FA08BD10B500F08AFA012159
:100A000045F27D2001F0E7FA0121C44801F0F0FA37
:100A10000121480601F0ECFA10BD10B5FFF743FCC8
:100A20004FF6FF70FFF760FE1F20FFF757FEBCA1D7
:100A30001820FFF7C8FEBEA13020FFF7C4FE4FF418
:100A40007840FFF74BFE10BD10B5FFF7D5FFFFF75D
:100A500085FFFFF7B8FF10BD30B585B0002400203A
:100A600000904FF4F040019000208DF80900042020
:100A70008DF8080008208DF80A0055208DF80B002D
:100A8000A0218DF80C1050218DF80D10A0218DF8AB
:100A90000E1050218DF80F10A0218DF8101050214C
:100AA0008DF81110A0218DF812106946A44800F0AD
:100AB00046FC054600BF00E0641C2946A04800F043
:100AC000D1FC012801D0FF2CF6D1002400E0641CE9
:100AD00000219B4800F030FD012801DAFF2CF6D1FF
:100AE00005B030BD10B58CB00024954800F0D2FAA6
:100AF00009A800F0F3FB00208DF82A008DF82B00E8
:100B00008DF82C008DF82D008DF82E008DF82F001B
:100B10008DF826008DF8270007208DF82800062084
:100B20008DF829000520ADF8240009A9844800F0BB
:100B3000CAFA00208DF81E008DF81F0001208DF8E4
:100B400020000020ADF81400ADF81600ADF8180034
:100B5000ADF81A00ADF81C0001208DF8210005A8A1
:100B600000F03BFB01220221754800F0DFFB002072
:100B700000904FF47060019004208DF80800002070
:100B80008DF8090002208DF80A00DE208DF80B0098
:100B9000CA218DF80C106946694800F0D0FBFF208F
:100BA0006849086000BF00E0641C66480068FF28D0
:100BB00003D140F6FF708442F6D3A4F57060FF388D
:100BC00001D160490860002202215D4800F0AEFBBF
:100BD0005C480068C0B20CB010BD0024FFF734FFC1
:100BE00001214D4800F049FF02214B4800F045FF2C
:100BF0000421494800F041FF0821474800F03DFF2B
:100C00000421444800F03BFFFFF76CFF4E49087099
:100C100006E0FFF721FF4D4C00E0641E002CFCDCD9
:100C2000F7E700B587B0464800F034FA04A800F0B2
:100C300055FB00208DF816008DF817008DF8180070
:100C40008DF819008DF81A008DF81B008DF8120030
:100C50008DF8130006208DF8140005208DF815007E
:100C6000ADF8100004A9364800F02DFA00208DF8E8
:100C70000A008DF80B0001208DF80C000020ADF863
:100C80000000ADF80200ADF80400ADF80600ADF8C4
:100C9000080001208DF80D00684600F09EFA07B0AC
:100CA00000BD00B585B0FFF7D7FE00200090019091
:100CB0008DF808008DF80A008DF813008DF80B00F0
:100CC00000218DF80C106A461D4800F044FC019884
:100CD000B0F5F04F19D19DF80800042815D19DF802
:100CE0000A00022811D19DF80C009DF80B1040EA73
:100CF0000120A0F55E41CA3907D1012011490860E1
:100D00000421054800F0BBFE02E000200D49086008
:100D100005B000BD001401400018014005000400AA
:100D20002020202020476F6C6442756C6C0000000E
:100D300020202043414E206578616D706C65000075
:100D400000640040081500200C150020A08601005A
:100D5000704700BFFEE700BFFEE700BFFEE700BF31
:100D6000FEE77047704770477047000000BF234997
:100D7000098811F0800FFAD0C0F308011F4A121D34
:100D80001180704730B504460D46002304E0E05C56
:100D9000FFF7ECFF581C83B2AB42F8DB30BD1FB548
:100DA0004FF4E13000900020ADF80400ADF80600EB
:100DB000ADF80800ADF80C000C20ADF80A0069464B
:100DC0000E4801F0B0F9012240F225510B4801F024
:100DD00027FA0121094801F017FA1FBD10B540F2AA
:100DE0002551064801F0EAFA30B10448001D008898
:100DF000C4B22046FFF7BAFF10BD00000038014022
:100E00000CB50020019000905748006840F48030F5
:100E10005549086000BF5448006800F40030009055
:100E20000198401C0190009818B90198B0F5A06F86
:100E3000F1D14D48006810F4003F02D0012000902D
:100E400001E000200090009801285BD1474800682D
:100E500040F01000454908600846006820F0030093
:100E600008600846006840F0020008603E4840689C
:100E70003D4948600846406848600846406840F47C
:100E8000806048600846C06A394908403649C862EF
:100E90000846C06A374908433349C86208460068B3
:100EA00040F08060086000BF2F48006810F0006FBD
:100EB000FAD02D48406820F47C102B494860084641
:100EC000406840F4E81048600846006840F08070D0
:100ED000086000BF2448006810F0007FFAD0224864
:100EE000406820F00300204948600846406840F010
:100EF0000200486000BF1C48406800F00C00082851
:100F0000F9D101E000BFFEE70CBD10B5FFF778FF97
:100F100010BD10B51448006840F001001249086087
:100F200008464068144908400F4948600846006870
:100F3000124908400C4908600846006820F48020E7
:100F400008600846406820F4FE00486008460068D3
:100F500020F0A05008604FF47F0088600020C86235
:100F6000FFF7D3FF10BD0000001002400020024038
:100F700000F0FEFF420601000000FFF0FFFFF6FE5A
:100F800008480047FEE7FEE7FEE7FEE7FEE7FEE76C
:100F9000FEE7FEE7FEE7FEE703480449044A054B87
:100FA000704700005101000888150020881B0020B0
:100FB000881700208817002031490143314A116009
:100FC000704770B5002100230F22C4780CB32D4C5C
:100FD000246804F4E064C4F5E064210AC1F1040368
:100FE000CA40447804FA03F184781440214309018B
:100FF000254C0678A155047804F01F050124AC4067
:1010000005786D114FF0E02606EB8505C5F8004127
:1010100009E0047804F01F050124AC401B4D06785C
:10102000761145F8264070BD194A0A400243154B17
:101030001B1F1A60704739B1124A121D1268024311
:10104000104B1B1D1A6006E00E4A121D12688243E7
:101050000C4B1B1D1A607047042808D14FF0E0218B
:10106000096941F004014FF0E022116107E04FF0FF
:10107000E021096921F004014FF0E022116170477D
:101080000000FA050CED00E000E400E080E100E083
:1010900080FFFF1F10B50446FD48844209D101219D
:1010A000480600F0CCFF00214FF0007000F0C7FFB1
:1010B00008E00121880600F0C2FF00214FF08060A7
:1010C00000F0BDFF10BD30B50246002000231468BB
:1010D00024F002041460146844F00104146000E079
:1010E0005B1C546814F0010F03D1A3F57F44FF3C4F
:1010F000F6D1546814F0010F01D100206CE08C7916
:10110000012C04D1146844F08004146003E01468D6
:1011100024F080041460CC79012C04D1146844F0CC
:101120004004146003E0146824F0400414600C7A56
:10113000012C04D1146844F02004146003E0146806
:1011400024F0200414604C7A012C04D1146844F07B
:101150001004146003E0146824F0100414608C7A06
:10116000012C04D1146844F00804146003E01468EE
:1011700024F008041460CC7A012C04D1146844F0E3
:101180000404146003E0146824F0040414608C78F0
:10119000A407CD7844EA05640D7944EA05444D7905
:1011A00044EA05540D886D1E2C43D461146824F064
:1011B00001041460002300E05B1C546814F0010F6C
:1011C00003D0A3F57F44FF3CF6D1546814F0010F1F
:1011D00001D0002000E0012030BD10B50021837A4D
:1011E000012202FA03F1AB4A126842F00102A94B54
:1011F0001A60A84A1C3212688A43A64B1C331A6034
:10120000027BCAB9A34A0C3212688A43A14B0C3341
:101210001A604288C38842EA03439E4A4032847A75
:1012200042F834300288838842EA0343994A4032C4
:10123000847A02EBC4025360027B012A19D1954AD9
:101240000C3212680A43934B0C331A6042880388AD
:1012500042EA03438F4A4032847A42F83430C288EB
:10126000838842EA03438B4A4032847A02EBC40209
:101270005360C27A3AB9874A121D12688A43854B75
:101280001B1D1A6006E0834A121D12680A43814B37
:101290001B1D1A60028932B97E4A143212688A43D1
:1012A0007C4B14331A600289012A06D1794A143220
:1012B00012680A43774B14331A60427B012A06D125
:1012C000744A1C3212680A43724B1C331A60714A0A
:1012D000126822F001026F4B1A6010BD002181716B
:1012E000C171017241728172C1728170C170072136
:1012F0000171062141710521018070476549096826
:1013000041F00101634A11601146096843F60E720B
:101310009143604A11601146096841EA0021116059
:101320001146096821F00101116070471AB1436943
:101330000B43436102E043698B434361704710B53F
:1013400002460020936803F08063B3F1806F00D100
:1013500010E0936803F00063B3F1006F01D1012046
:1013600008E0936803F08053B3F1805F01D102205D
:1013700000E00420042874D002F5C07303EB0013CE
:101380001B6803F0010402F5C07303EB00131C603B
:101390000B7A7BB94B7A0C8843EA445302F5C0744C
:1013A00004EB00142468234302F5C07404EB00141A
:1013B000236010E00B7A4C6843EAC4034C7A234361
:1013C00002F5C07404EB00142468234302F5C074D2
:1013D00004EB001423608B7A03F00F038B7202F589
:1013E000C07303EB00135B6823F00F0402F5C073B6
:1013F00003EB00135C6002F5C07303EB00135B6842
:101400008C7A234302F5C07404EB001463608B7B79
:101410001C064B7B44EA03440B7B44EA0323CC7A4F
:10142000234302F5C07404EB0014A3608B7C1C06FC
:101430004B7C44EA03440B7C44EA0323CC7B2343E8
:1014400002F5C07404EB0014E36002F5C07303EB13
:1014500000131B6843F0010402F5C07303EB001393
:101460001C6010BD0246002021B1012914D00229C0
:1014700030D120E0936803F0010340EA83009368D1
:1014800003F0020318439368C3F38063184323E017
:101490000064004000660040936803F4807340EAF3
:1014A0009310936803F4007340EA13209368C3F326
:1014B000C063184310E0936803F4803340EA93302C
:1014C000936803F4003340EA13409368C3F3007356
:1014D000184301E0002000BF00BF20B1052804D060
:1014E000072806D103E0022005E0002003E00120E8
:1014F00001E0002000BF00BF704721B1012907D0E3
:1015000002290FD109E0826842F0800282600AE07D
:10151000826842F40042826005E0826842F4000280
:10152000826000E000BF00BF704711B92022C26096
:1015300001E02022026170470246002019B9D368F9
:1015400003F0030006E0012903D1136903F003004F
:1015500000E00020704730B505460C46134605F5FF
:10156000D87000EB0410006800F004001872187ABC
:1015700050B905F5D87000EB0410006840F2FF7117
:1015800001EA5050186009E005F5D87000EB04102E
:1015900000686FF0604101EAD000586005F5D8702E
:1015A00000EB0410006800F00200587205F5D870D6
:1015B00000EB0410406800F00F00987205F5D87039
:1015C00000EB04104068000AD87405F5D87000EBF1
:1015D00004108068D87205F5D87000EB041080689C
:1015E000010A197305F5D87000EB04108068010C2E
:1015F000597305F5D87000EB04108068000E9873DD
:1016000005F5D87000EB0410C068D87305F5D870E4
:1016100000EB0410C068010A197405F5D87000EBDE
:101620000410C068010C597405F5D87000EB041063
:10163000C068000E987421462846FFF776FF30BD3B
:1016400021B1026842F48032026003E0026822F4B1
:10165000803202607047014600200A6822F00102D1
:1016600042F002020A604A6802F00302022A00D134
:101670000120704701464FF6FF7200200B6823F0EF
:1016800002030B6000E0521E4B6803F00203022BC2
:1016900001D1002AF7D14B6803F00203022B00D0DE
:1016A000012070470246002093690B4201D00120BF
:1016B00000E00020704782698A43826170470246D9
:1016C00000200A4201D0012000E00020704770B5E0
:1016D00004460D460026402D47D00EDC072D2BD0AA
:1016E00006DC042D2FD0052D19D0062D61D11CE06C
:1016F000082D2ED0202D5CD131E0B5F5806F46D07D
:1017000006DCB5F5807F36D0B5F5007F51D138E0E5
:10171000B5F5803F47D0B5F5003F4AD13DE0A06820
:101720000121FFF7CCFF064645E0A0684FF4807129
:10173000FFF7C5FF06463EE0A0684FF48031FFF793
:10174000BEFF064637E0E0680821FFF7B8FF06460F
:1017500031E0E0681021FFF7B2FF06462BE0206978
:101760000821FFF7ACFF064625E020691021FFF7AE
:10177000A6FF06461FE0A0690121FFF7A0FF06466D
:1017800019E0A0690221FFF79AFF064613E0A0695D
:101790000421FFF794FF06460DE060681021FFF773
:1017A0008EFF064607E060680821FFF788FF0646BF
:1017B00001E0002600BF00BF304670BD402935D093
:1017C0000EDC072925D006DC042926D0052919D0EE
:1017D000062943D119E0082922D020293ED122E050
:1017E000B1F5806F2FD006DCB1F5807F21D0B1F547
:1017F000007F33D122E0B1F5803F29D0B1F5003F21
:101800002CD128E00122826029E04FF480728260AE
:1018100025E04FF48032826021E00822C2601EE0A1
:101820001022C2601BE00822026118E0102202614F
:1018300015E0826922F00102826110E0826922F0E3
:10184000020282610BE0826922F00402826106E0FA
:101850000822426003E01022426000E000BF00BFA7
:101860007047000010B50446C248844208D10121E7
:10187000042000F0D7FB0021042000F0D3FB46E059
:10188000BD48844208D10121082000F0CBFB002193
:10189000082000F0C7FB3AE0B848844208D1012193
:1018A000102000F0BFFB0021102000F0BBFB2EE059
:1018B000B348844208D10121202000F0B3FB00216D
:1018C000202000F0AFFB22E0AE48844208D1012185
:1018D000402000F0A7FB0021402000F0A3FB16E011
:1018E000A948844208D10121802000F09BFB0021FF
:1018F000802000F097FB0AE0A448844207D1012130
:10190000801500F08FFB0021A01500F08BFB10BDAF
:1019100010B50121084600F085FB0021012000F0F0
:1019200081FB10BD2DE9F041024600250026002074
:1019300000230024002791F803C00CF00F0591F854
:1019400003C01CF0100F03D091F802C04CEA05054B
:1019500091F800C0BCF1000F31D0146800202BE0DA
:101960004FF0010C0CFA00F3B1F800C00CEA0306CA
:101970009E4220D183004FF00F0C0CFA03F7BC43BA
:1019800005FA03FC4CEA040491F803C0BCF1280FEB
:1019900006D14FF0010C0CFA00FCC2F814C00AE0AA
:1019A00091F803C0BCF1480F05D14FF0010C0CFABF
:1019B00000FCC2F810C0401C0828D1D31460B1F854
:1019C00000C0BCF1FF0F34DD546800202EE000F1B0
:1019D000080C4FF0010808FA0CF3B1F800C00CEA4B
:1019E00003069E4221D183004FF00F0C0CFA03F73F
:1019F000BC4305FA03FC4CEA040491F803C0BCF1B3
:101A0000280F05D100F1080C08FA0CF8C2F8148070
:101A100091F803C0BCF1480F07D100F1080C4FF05A
:101A2000010808FA0CF8C2F81080401C0828CED330
:101A30005460BDE8F0814FF6FF7101800221817092
:101A40000421C17070470246002093680B4201D008
:101A5000012000E0002070470146886880B270478E
:101A600002460020D3680B4201D0012000E0002094
:101A700070470146C86880B2704701617047416194
:101A800070470AB1016100E041617047C160704771
:101A90004FF480320A438261816182618269826986
:101AA0007047024600203A4B18684FF68073184082
:101AB00040EA02100843364B186070473549C86148
:101AC0007047F0B50A460023002400210025304E5F
:101AD0007168C0F3034583B200F44016B6F5401FA9
:101AE00008D121F070612A4E766826F07066284F82
:101AF0007E6012E000F48016B6F5801F06D1032642
:101B000006FA05F4A14341F0706106E0460D360186
:101B100003FA06F6B14341F0706122B1460D360179
:101B200003FA06F631431A4E7160F0BD30B500225B
:101B30008B071C0F0F2303FA04F2154B08338C108C
:101B400053F824309343124C08348D1044F8253058
:101B500023468C1053F824308C07240F00FA04F429
:101B600023430B4C08348D1044F8253030BD0A490E
:101B70000860704700080140000C0140001001405F
:101B80000014014000180140001C014000200140E9
:101B90000000014000002042DC002042F9480068BB
:101BA00040F00100F749086008464068F6490840DF
:101BB000F449486008460068F4490840F149086063
:101BC0000846006820F4802008600846406820F439
:101BD000FE0048600846006820F0A05008604FF4FE
:101BE0007F0088600020C8627047E649096821F4D8
:101BF0008031E44A11601146096821F480211160A6
:101C0000B0F5803F03D0B0F5802F0ED106E0DD495E
:101C1000096841F48031DB4A116007E0D94909685D
:101C200041F4A021D74A116000E000BF00BF704717
:101C300010B501460022002300204A11012A02D1DA
:101C4000D04C236806E0022A02D1CE4C236A01E080
:101C5000CC4C636A01F01F02012494401C4201D065
:101C6000012000E0002010BD38B5002000900024C5
:101C7000002500BF3120FFF7DBFF05460098401C20
:101C800000900098B0F5A06F01D0002DF2D0312067
:101C9000FFF7CEFF08B1012400E00024204638BD44
:101CA00001460020B74A106820F0F80040EAC10061
:101CB00010607047B6490860704702460020B14B7B
:101CC000586820F4741042EA01031843AD4B586081
:101CD0007047AF490866704702460020A94BD86A92
:101CE000AC4B184042EA01031843A64BD862704738
:101CF00001460020A34AD06A20F0F0000843D062D9
:101D00007047014600209F4AD06A20F47060084363
:101D1000D06270479E498866704701460020994A04
:101D2000D06A20F470400843D06270479849086731
:101D3000704701460020934A506820F00300084392
:101D4000506070478F48406800F00C0070470146B3
:101D500000208C4A506820F0F00008435060704723
:101D600001460020874A506820F4E0600843506034
:101D7000704701460020834A506820F4605040EAD2
:101D8000C1005060704729B17E4A527A02437D4BB0
:101D90005A7204E07B4A527A82437A4B5A727047F5
:101DA0007D490860704701460020764A506820F45B
:101DB0004040084350607047784908607047774951
:101DC000091D086070470021754A11706D4A82F83C
:101DD0002010012802D0042808D103E00121704A14
:101DE000117004E005216E4A117000E000BF00BFD1
:101DF00070476C49086070476249096A0143614A4B
:101E00001162704767494439086070472DE9F04115
:101E100000210022002500230026002400278C46F4
:101E2000DFF86081D8F8048008F00C0121B10429A2
:101E300007D0082959D109E0DFF86C81C0F800808B
:101E400058E0DFF86881C0F8008053E0DFF83481A3
:101E5000D8F8048008F47012DFF82881D8F80480DC
:101E600008F48035920C0D2A01D0921C00E0062265
:101E700035B9DFF83C8102FB08F8C0F8008033E098
:101E8000DFF80081D8F82C8008F48036DFF8F48081
:101E9000D8F82C8008F00F0808F1010446B9DFF8E3
:101EA0000C81B8FBF4F808FB02F8C0F800801BE0D6
:101EB000DFF8D080D8F82C80C8F3031808F10107A8
:101EC000DFF8C080D8F82C80C8F3032808F1020C92
:101ED000DFF8D880B8FBF7F808FB0CF8B8FBF4F88B
:101EE00008FB02F8C0F8008004E0DFF8BC80C0F80E
:101EF000008000BF00BFDFF88C80D8F8048008F0B5
:101F0000F0010909DFF8AC8018F80130D0F8008042
:101F100028FA03F8C0F80480DFF86880D8F8048055
:101F200008F4E061090ADFF88C8018F80130D0F875
:101F3000048028FA03F8C0F80880DFF84880D8F851
:101F4000048008F46051C90ADFF8688018F801308D
:101F5000D0F8048028FA03F8C0F80C80DFF8248059
:101F6000D8F8048008F44041890BDFF84C8018F859
:101F70000130D0F80C80B8FBF3F8C0F81080BDE851
:101F8000F0810000001002400000FFF0FFFFF6FEAD
:101F900000004242F0FFFEFFD8004242C405424228
:101FA000201002408004424200127A0040787D01F5
:101FB00000093D000E1500201E15002029B1354AEC
:101FC00052690243334B5A6104E0324A52698243F8
:101FD000304B5A61704729B12E4A926902432D4B0A
:101FE0009A6104E02B4A926982432A4B9A617047B6
:101FF00029B1284AD2690243264BDA6104E0254A16
:10200000D2698243234BDA61704729B1214A926A2F
:102010000243204B9A6204E01E4A926A82431D4B9F
:102020009A62704729B11B4AD2680243194BDA60A1
:1020300004E0184AD2688243164BDA60704729B12F
:10204000144A12690243134B1A6104E0114A1269DF
:102050008243104B1A6170470F49086070470F495F
:10206000C86470470B49C87170470A48406A40F01D
:10207000807008494862704701460020054A92680E
:102080000A4201D0012000E0002070470149887217
:1020900070470000001002404004424200004242EB
:1020A00010B50446E248844209D101218803FFF7B4
:1020B000B9FF00214FF48040FFF7B4FF32E0DD4864
:1020C000844209D101214804FFF7B9FF00214FF4F0
:1020D0000030FFF7B4FF25E0D748844209D1012141
:1020E0008804FFF7ACFF00214FF48020FFF7A7FF23
:1020F00018E0D248844209D10121C804FFF79FFFAC
:1021000000214FF40020FFF79AFF0BE0CC488442F7
:1021100008D101210805FFF792FF00214FF480103C
:10212000FFF78DFF10BD2DE9F04786B005460E463E
:102130000024A24600BF00BF0027B08900B100BF45
:102140002F462C8A4CF6FF700440F08804432C8202
:10215000AC894EF6F3100440B08831890843718988
:1021600008430443AC81AC8A4FF6FF400440B08979
:102170000443AC8201A8FFF749FEAD48874202D173
:10218000DDF810A001E0DDF80CA00AEBCA0000EBBE
:102190000A1031688900B0FBF1F86420B8FBF0F058
:1021A00004012009642101FB1089322000EB091091
:1021B000B0FBF1F000F00F0004432C8106B0BDE845
:1021C000F0874FF41651016000218180C1800181A8
:1021D0000C21418100218181704710B50246002009
:1021E000108A4FF2FF0318400B884C8823438C88D9
:1021F0002343CC8823431843108210BD0021018063
:1022000041808180C180704721B1828942F40052AF
:10221000828104E082894DF6FF731A408281704703
:10222000F0B503460024002600250020A1F5106724
:102230006A3F00D100BF1846C1F3421401F01F06E7
:10224000012707FA06F5012C01D10C3004E0022C1D
:1022500001D1103000E014301AB107682F43076035
:1022600002E00768AF430760F0BD1AB1838A0B43F1
:10227000838202E0838A8B4383827047028A4FF60F
:10228000F0731A400282028A0A43028270478289EE
:102290004FF2FF731A40828182890A43828170471C
:1022A00021B1828942F00202828104E082894FF6E4
:1022B000FD731A4082817047028A4FF6DF731A401D
:1022C0000282028A0A430282704721B1028A42F4E2
:1022D0008042028204E0028A4BF6FF731A400282B7
:1022E0007047C1F308028280704701468888C0F3B6
:1022F00008007047818941F0010181817047028B9C
:10230000D2B20283028B42EA012202837047028B1F
:1023100002F47F420283028B0A430283704721B199
:10232000828A42F02002828204E0828A4FF6DF73C2
:102330001A408282704721B1828A42F01002828262
:1023400004E0828A4FF6EF731A408282704721B10F
:10235000828A42F00802828204E0828A4FF6F77392
:102360001A4082827047828A4FF6FB731A4082823B
:10237000828A0A438282704721B1828A42F0020235
:10238000828204E0828A4FF6FD731A40828270478F
:1023900002460020B1F5007F00D100BF13880B4238
:1023A00001D0012000E00020704701F40072B2F576
:1023B000007F00D100BFCA430280704770B502465B
:1023C0000024002300250020A1F510666A3E00D1FC
:1023D00000BFC1F3421501F01F03012606FA03F303
:1023E000012D02D19689334006E0022D02D1168AD2
:1023F000334001E0968A33400C12012606FA04F4B9
:102400001688344013B10CB1012000E0002070BDEB
:1024100010B500220023A1F510646A3C00D100BF72
:102420000A1201249440A3B2DC43048010BD0000D2
:10243000003801400044004000480040004C00408B
:1024400000500040704770477047754600F028F80C
:10245000AE4605006946534620F00700854618B091
:1024600020B5FEF799FDBDE820404FF000064FF083
:1024700000074FF000084FF0000B21F00701AC46B9
:10248000ACE8C009ACE8C009ACE8C009ACE8C009D8
:102490008D4670470446AFF300802046FDF7C3FE2B
:1024A000004870472415002001491820ABBEFEE704
:1024B00026000200704700004FF40051064A1160E8
:1024C0008900121F1160054908604FF48041121DF8
:1024D0001160121F11607047141401400C18014064
:1024E0004FF40051064A11608900116005490860E7
:1024F0004FF48041121D1160121F116070470000DF
:10250000101401400C18014070B505460C464020DF
:10251000054948612846FFF7CFFF2046FFF7E0FF57
:1025200040200149086170BD001001404C250008A1
:1025300000000020241500008C010008E82C000891
:102540002415002064060000F0010008022F00019D
:102550000316800102611EE13292CC02012A6A2335
:10256000600C02200F30063006FE1FFE1F300638BA
:102570000718030A2007180318038C010231722080
:102580001700E003F80F9C0E8C1C8C188C00980030
:10259000F801E007800E800E100B189C18B80CF0A4
:1025A0000FE0038026A15A10090E181B0C110C1104
:1025B000060210110311039B018E01C038C06C602C
:1025C000446044300260071844186C0C38BE100593
:1025D000E001F0037A10140618063003F001F00051
:1025E000F8009C310E33061E061C02E0063FFC7309
:1025F000F021B8920C020121E7100B0200038001C8
:10260000C000C0006002D230022114211C155E12ED
:10261000032A15163220123570120302D206021157
:102620001425A2214ED6208821481008D806F80784
:10263000E00130D2052AEAC405FC3FFC3FE8092C42
:1026400030120002021B806C000633E007E0070036
:1026500001253AF57F750C155C351045624564D14E
:102660007AE00A03F007380E180C0C1802D4091887
:102670000C380EF007E003B0214C0C071901F001F3
:102680009801880803A16043F80F5E220002219C94
:1026900035F025ECD0071800FC1FFC1F9010070137
:1026A000F807180E0C0121C81805C003C007511106
:1026B0003C41920210F8904C0B0C000E000F000FE2
:1026C000800DC03003116B270C0CB209148513F870
:1026D0000F9031893009EC03FC071C0E001C981187
:1026E0005E0005101C0C180E602009C007F00F38A2
:1026F0001C1818325409CC03EC0F3C0E1C1C20068D
:10270000121C2031D24582357C16C07A3AE0C85A74
:1027100070DE051480215384073806F007F0078C1B
:10272000E005380CF80F604130521C2430091C1CA5
:10273000381EF81BE019D1130C1CC00B1BF0018ACA
:10274000012114011F30091ACE1C0510001C8072D3
:102750000416F8DC1AF85C17800F600A1810F8C32A
:10276000F81F080D1E1405180708003800F00114A2
:10277000121F61161F9C13013814091770796E6DB2
:102780002603FD2E033D7C03400C18180420C229AB
:10279000224A11440902EC0C221113E20C024004FB
:1027A000201818980315D4200403C00602396E229D
:1027B00018022C07F83FF83F1C70AF052119D910FB
:1027C0006C0503FC0F0C5E0310040CFC070E1A18BA
:1027D000A541021E180003FA0770BC0A1F38381CF6
:1027E000300C700660DD04E008600C701C30F01FD7
:1027F000903C08FE03FE0F060E06A105B1022DB3A4
:1028000005E8050EFE0FFEA01DCC048DA20529AE25
:10281000ADB0053D3803C5A211DC4DBB032D270328
:102820008005F81FF81F0E4DD303DDCA043C0C0FC2
:10283000F83F3C780E6006E007C0810411A11DC579
:10284000031533DC090EC03CF0F83FE00FBF03A2D4
:102850003002319EB1120F260C3080070D15A005F5
:10286000021406022531DC063807F003E0B0043517
:102870003A10140C060606038601C60066007600B0
:10288000DE008E01060312360C64DD4105021B18C2
:10289000022530CD210320050EE01EF0024336D87C
:1028A000022366CC0252C601E40586C386C320100B
:1028B000041C303C02126C0212CC0210058C310C4C
:1028C0003302123602123C02E638201C05E007F8FB
:1028D0001F9904193EA303C002F80806600E701C7D
:1028E00038F8401BFC0F02CA38920E190CC407912D
:1028F0006082E05E140907E006630E3F1C3CE0CEF8
:10290000F79106198258041F06389C1E38C00876B5
:10291000074C49B20E106030065DDE041D9B051B9E
:10292000F80330331E00401C050E301C1C1005ED52
:10293000000308042A7FFE7F10E95EA97E071018B5
:102940001820430360BC6D14072D16072D9409143D
:102950000570076003631DE005E13023C361028356
:10296000663302236C1B02CC092C1A3C1E380E382D
:102970000E31051C090FE00C70183030183F043C74
:10298000040EC0075E04140503E00670F71D8107FE
:10299000D006300E6007E0602D79044C08301C38FA
:1029A0003818300C65030D1C80075C05FC7FFC7F2C
:1029B0006D07DD7C072D2708253EED10082FE0036D
:1029C000AE06011E0221282DA60A6DA6094DA809F2
:1029D0001D64096D0E0B7E03A009F1600221000247
:1029E00061601D82071D4407256C3F6003D70429E1
:1029F0001901390112FF010D39AE0A9D4A08180567
:102A0000F003F807AA2C070C000FF00FF8B1081F0D
:102A10000C1C5C080F16F01820041ED8A80B1E38DA
:102A2000370881012DE0070F17D803DA091D9A092D
:102A30006F300E39092DA3081E309009EEC0000931
:102A4000711F2805C01BF01F368160000719301C5C
:102A5000F01FC01B601E0F83066E18D4051952ECC0
:102A6000051CF00FC0F00644040FC00FDA2D9C08BF
:102A700055E4B1020D17D40A1E0DFA093DCA0961C9
:102A8000011D600924050FE00D002A6E06AA0895B5
:102A9000204F07F86A09D1010D16F00A0215C0028D
:102AA000012E3041DEEC04F80078BE0C1C050C0C45
:102AB000060C6A0D100DCC006C00FC009C018C0310
:102AC0000C03120E100C560C011C020D169009E09E
:102AD000097C3CFF7EC7E383C1020D16EA0B062387
:102AE00098200510E099101D0E0E0A17C0700916E7
:102AF000A00D16EA070917700D151B081EB06E070A
:102B0000FE70E20D0E1830140D1E037A0E1D1A0B06
:102B10001DF2093D060C0D15900C1D020F0919A0A0
:102B20000F170780EA0D09106A1238C01D4C0B0DF3
:102B300015DB0A4DFE053E18920F1DB7060E140355
:102B400000068DF80F3008C141C141C361630132F5
:102B50003601321C010D16F00F3E1CF70952605A67
:102B60001D5E061D75061E38E10B0117C01D3606D9
:102B70001D38062E1828102FE00C940A2D3E064D05
:102B8000F00D1DA20D1D700C0D159A0C0D1B800D66
:102B90008D300B8D320E2DE205BA40D63D900F0DD3
:102BA000259009CD22119E6024069DC60FB3030017
:102BB00048FEC0A80E5D740500075110F81F080FED
:102BC0000001600DC003300C0810042004200240F6
:102BD00002210E0C05120810300C34032D3E052F77
:102BE000F81F1A102D82084102210E0F18F81F64D9
:102BF000031EE04C0EA9700F1CF00FF60F21302DB4
:102C00009E056102011E30ADBC103AC04021660D28
:102C100010840A011430A16E0D10A80D1D24063D6C
:102C200042041DE30C0E20030411A1B20122307DE9
:102C30006C121D581010048C018602128C0A0005BB
:102C40001EF001E001301006F801FC01FE0212FC4A
:102C50000A011E30100B8007800F801980318061BF
:102C60000212310A00041F0F80073010061F803F38
:102C7000807F02123F0A0111301805C00120023383
:102C8000B00501300608012116E1024DCE082D6283
:102C9000091D4211A00407D80D027DF6039102011F
:102CA0001260230410593240164310041211026CB2
:102CB000042004402E09C1604C07CC19C631C26102
:102CC00042091F700680084D3A101D69046D1009F5
:102CD000DDDF11200402030404000B0006070809CD
:082CE0000204060800000000D8
:04000005080001519D
:00000001FF
